:100000000C9468010C9499010C9499010C94990139
:100010000C9499010C9499010C9499010C949901F8
:100020000C9499010C9499010C9499010C949901E8
:100030000C9499010C9499010C9499010C949901D8
:100040000C9499010C9499010C9499010C949901C8
:100050000C9499010C9499010C9499010C94EB0166
:100060000C9499010C94C1050C94B1060C9499015F
:100070000C9499010C9499010C9499010C94990198
:100080000C9499010C9499010C9499010C94990188
:100090000C94F5050C94F0060C9499010C949901BC
:1000A0000C9499010C9499010C9499010C94990168
:1000B0000C9499010C9499010C9499010C94990158
:1000C0000C9499010C9499010C9499010C942906B3
:1000D0000C942F070C9499010C945D060C946E07F8
:1000E0000C949901C002C502CA02D4024D03DE027B
:1000F000E602EE02F80202030C031B0325034D0384
:100100002F03390343036D03700363036703A703DE
:10011000740378037E03820386038C0390039403A5
:10012000A7039A039E03A2030C9486030C946D0309
:100130000C94C0020C9494030C9470030C947E03F2
:100140000C94F8020C94D4020C9414040C946303E1
:100150000C9482030C94A7030C94A2030C9439030F
:100160000C940C030C941D050C94E6020C944D03A6
:100170000C94DE020C94C5020C9467030C94740377
:100180000C9459050C9425030C9478030C943708AF
:100190000C94EE020C949A030C941B030C949003A1
:1001A0000C9464050C9439050C9402030C9490068D
:1001B0000C9443030C949E030C948C030C942F0317
:1001C0000C94CA020C940D050000090A02080B0CDD
:1001D0000D070603040100000000000000000000FD
:1001E000000000000000000000000000000000000F
:1001F0000000000011100F000000000000000000CF
:1002000000000000000000000000000000000102EB
:100210001020200808102040102040800201020118
:1002200008040201010204081020408080402010D0
:100230000804020180040201804020100804020129
:100240000804020101020408102040800102040891
:10025000102040800505050507050808080802026A
:1002600002020A0A08080404040401010101010150
:1002700001010303030303030303040707070C0C33
:100280000C0C0C0C0C0C02020202060606060606FA
:1002900006060B0B0B0B0B0B0B0B000022002500B3
:1002A00028002B002E00310034000201000005015F
:1002B00008010B0100002100240027002A002D0066
:1002C0003000330001010000040107010A01370872
:1002D00011241FBECFEFD1E2DEBFCDBF00E00CBFC7
:1002E00012E0A0E0B2E0E0E7F2E100E00BBF02C004
:1002F00007900D92A231B107D9F714E0A2E1B2E064
:1003000001C01D92A53CB107E1F711E0C8E6D1E0BC
:1003100000E006C021970109802FFE010E942E09EE
:10032000C736D10780E00807A9F70E9400050C94A2
:1003300009090C94000061E0809100020E94A8036A
:10034000E1E8F0E08081887F808380818360808322
:1003500040E052EC61E070E083E892E00C94AD077D
:1003600083E892E00E940D05181619069CF583E8B3
:1003700092E00E94390530ED380F3A3098F4409100
:100380001202509113026AE0649F9001659F300D44
:1003900011249927C097820F931F90931302809383
:1003A000120208958D30B1F460911202709113021F
:1003B0004AE050E083E892E00E94F8046091120263
:1003C00070911302809100020E9497021092130212
:1003D0001092120208951F920F920FB60F921124DD
:1003E0002F933F938F939F93AF93BF938091150269
:1003F00090911602A0911702B09118023091140248
:1004000023E0230F2D3720F40196A11DB11D05C057
:1004100026E8230F0296A11DB11D2093140280939C
:10042000150290931602A0931702B09318028091C0
:10043000190290911A02A0911B02B0911C02019620
:10044000A11DB11D8093190290931A02A0931B0263
:10045000B0931C02BF91AF919F918F913F912F91CB
:100460000F900FBE0F901F901895789484B58260FE
:1004700084BD84B5816084BD85B5826085BD85B548
:10048000816085BDEEE6F0E0808181608083E1E8F7
:10049000F0E010828081826080838081816080832F
:1004A000E0E8F0E0808181608083E1EBF0E0808132
:1004B00084608083E0EBF0E0808181608083E1E90B
:1004C000F0E0808182608083808181608083E0E9C8
:1004D000F0E0808181608083E1EAF0E080818260E9
:1004E0008083808181608083E0EAF0E080818160A8
:1004F0008083E1E2F1E0808182608083808181609D
:100500008083E0E2F1E0808181608083EAE7F0E0CF
:10051000808184608083808182608083808181602B
:1005200080838081806880831092C10008951F932A
:10053000CF93DF93182FEB0161E00E94A80320976F
:1005400011F460E004C0CF3FD10539F461E0812FA0
:10055000DF91CF911F910C94E403E12FF0E0E85379
:10056000FE4FE4914E2F50E0FA013197E131F10551
:1005700008F093C08827EE58FF4F8F4F0C942E0938
:1005800084B5806884BDC7BD8DC084B5806284BDDC
:10059000C8BD88C080918000806880938000D0931F
:1005A0008900C09388007EC0809180008062809323
:1005B0008000D0938B00C0938A0074C08091B000FB
:1005C00080688093B000C093B3006CC08091B0008D
:1005D00080628093B000C093B40064C080919000AA
:1005E000806880939000D0939900C09398005AC07F
:1005F00080919000806280939000D0939B00C09384
:100600009A0050C080919000886080939000D093B1
:100610009D00C0939C0046C08091A000806880939C
:10062000A0008091A0008F7B8093A000D093A900B0
:10063000C093A80037C08091A00080628093A00082
:10064000D093AB00C093AA002DC08091A000886019
:100650008093A000D093AD00C093AC0023C08091E4
:100660002001806880932001D0932901C093280144
:1006700019C080912001806280932001D0932B01CA
:10068000C0932A010FC080912001886080932001CF
:10069000D0932D01C0932C0105C0C038D1050CF0BA
:1006A00055CF4FCFDF91CF911F91089590E0FC017E
:1006B0003197E131F10508F04AC08827ED57FF4F27
:1006C0008F4F0C942E09809180008F7703C080910A
:1006D00080008F7D80938000089584B58F7702C05D
:1006E00084B58F7D84BD08958091B0008F7703C05D
:1006F0008091B0008F7D8093B0000895809190002C
:100700008F7707C0809190008F7D03C0809190000B
:10071000877F8093900008958091A0008F7707C015
:100720008091A0008F7D03C08091A000877F80937F
:10073000A0000895809120018F7707C0809120014B
:100740008F7D03C080912001877F809320010895D1
:10075000CF93DF9390E0FC01E25FFD4F2491FC0119
:10076000EC5AFD4F8491882361F190E0880F991F26
:10077000FC01EC54FD4FC591D491FC01E656FD4FB0
:10078000A591B491611109C09FB7F8948881209513
:1007900082238883EC912E230BC0623061F49FB7D3
:1007A000F8943881822F809583238883EC912E2BB7
:1007B0002C939FBF06C08FB7F894E8812E2B288317
:1007C0008FBFDF91CF9108951F93CF93DF93282F91
:1007D00030E0F901E853FE4F8491F901E25FFD4FEB
:1007E000D491F901EC5AFD4FC491CC23C9F0162FD6
:1007F00081110E945603EC2FF0E0EE0FFF1FE6562A
:10080000FD4FA591B4918FB7F894111105C09C913B
:10081000ED2FE095E92302C0EC91ED2BEC938FBF17
:10082000DF91CF911F910895CF92DF92EF92FF92C7
:100830000F931F93CF93DF936C01EB017B01E40EC9
:10084000F51E00E010E0CE15DF0561F06991D601DC
:10085000ED91FC910190F081E02DC6011995080FF2
:10086000191FF1CFC801DF91CF911F910F91FF9018
:10087000EF90DF90CF9008956115710579F0FB013D
:1008800001900020E9F73197AF01461B570BDC01BF
:10089000ED91FC910280F381E02D199480E090E0CD
:1008A0000895DC01ED91FC910190F081E02D199407
:1008B0008F929F92AF92BF92CF92DF92EF92FF9270
:1008C0000F931F93CF93DF93CDB7DEB7A1970FB6EA
:1008D000F894DEBF0FBECDBF6C01142FE52FCB0106
:1008E000022F19A2223008F40AE07E0121E2E20E72
:1008F000F11C802E912CA12CB12C612F7E2FA501F3
:1009000094010E940C09029F1019112481E0E81A39
:10091000F1081A3014F4105D01C0195CF70110835E
:10092000122FE32FCA01232B242B252B31F7B701DC
:10093000C6010E943C04A1960FB6F894DEBF0FBE1C
:10094000CDBFDF91CF911F910F91FF90EF90DF907E
:10095000CF90BF90AF909F908F900895CF92DF92ED
:10096000EF92FF920F931F93CF93DF93EC016A01F5
:100970007B012115310579F4E881F9810190F0813D
:10098000E02D642FDF91CF911F910F91FF90EF9099
:10099000DF90CF9019942A303105E9F477FF1AC01F
:1009A0006DE20E9451048C0144275527BA014C196D
:1009B0005D096E097F092AE0CE010E945804800F6C
:1009C000911FDF91CF911F910F91FF90EF90DF90DA
:1009D000CF9008952AE0B701A601CE01DF91CF9113
:1009E0001F910F91FF90EF90DF90CF900C945804DF
:1009F0009A01AB01662757FD6095762F0C94AE04E3
:100A00000E9435020E949B01C0E9D6E00E94B0011D
:100A10002097E1F30E949006F9CFFC0124853585EB
:100A2000F901E05CFF4F8081918132962081318114
:100A3000821B930B8F7399270895DC011C96ED910F
:100A4000FC911D97DF01A05CBF4F2D913C91119748
:100A500012968D919C9111972817390739F08D9135
:100A60009C91E80FF91F808190E008958FEF9FEF30
:100A70000895FC01A485B585FD01E05CFF4F208150
:100A800031813296808191812817390779F08081F0
:100A90009181A80FB91F8C91208131812F5F3F4F29
:100AA0002F7333273183208390E008958FEF9FEFDA
:100AB0000895FC0181A1882329F0A489B5898C912E
:100AC00086FFFBCF11A208950F931F93CF93DF935F
:100AD000FC01A685B7858D01005C1F4FE801888168
:100AE000998101968F739927AD014E5B5F4FEA01A3
:100AF0002881398182179307D1F3E8012881398150
:100B0000A20FB31F6C93A685B785A05CBF4F11964B
:100B10009C938E93A689B7892C9181E090E0078CF5
:100B200002C0880F991F0A94E2F7822B8C9381E010
:100B300081A30488F589E02D80818064808381E031
:100B400090E0DF91CF911F910F910895FB01E05C40
:100B5000FF4F208131812F5F3F4F2F733327DB0100
:100B6000AE5BBF4F4D915C912417350741F040813A
:100B70005181DB01A40FB51F8C933183208308952D
:100B800008951F920F920FB60F9211240BB60F9279
:100B90002F933F934F935F936F937F938F939F9385
:100BA000AF93BF93EF93FF938091C00082FD07C086
:100BB0008091C60061E874E00E94A60502C08091A1
:100BC000C600FF91EF91BF91AF919F918F917F915F
:100BD0006F915F914F913F912F910F900BBE0F90AE
:100BE0000FBE0F901F90189508951F920F920FB689
:100BF0000F9211240BB60F922F933F934F935F9355
:100C00006F937F938F939F93AF93BF93EF93FF93D4
:100C10008091C80082FD07C08091CE0069EF73E02B
:100C20000E94A60502C08091CE00FF91EF91BF9176
:100C3000AF919F918F917F916F915F914F913F9174
:100C40002F910F900BBE0F900FBE0F901F90189515
:100C500008951F920F920FB60F9211240BB60F92A8
:100C60002F933F934F935F936F937F938F939F93B4
:100C7000AF93BF93EF93FF938091D00082FD07C0A5
:100C80008091D60061E773E00E94A60502C08091C2
:100C9000D600FF91EF91BF91AF919F918F917F917E
:100CA0006F915F914F913F912F910F900BBE0F90DD
:100CB0000FBE0F901F90189508951F920F920FB6B8
:100CC0000F9211240BB60F922F933F934F935F9384
:100CD0006F937F938F939F93AF93BF93EF93FF9304
:100CE0008091300182FD07C08091360169EE72E08B
:100CF0000E94A60502C080913601FF91EF91BF913D
:100D0000AF919F918F917F916F915F914F913F91A3
:100D10002F910F900BBE0F900FBE0F901F90189544
:100D200083E892E00E940D05892B11F00E94C00516
:100D300081E692E00E940D05892B11F00E94F405D6
:100D40008FE392E00E940D05892B11F00E94280686
:100D50008DE192E00E940D05892B11F00C945C0648
:100D600008951F920F920FB60F9211240BB60F9297
:100D70002F933F938F939F93EF93FF9320917D0445
:100D800030917E0480917F04909180042817390768
:100D900031F48091C1008F7D8093C10014C0E09137
:100DA0007F04F0918004E35CFB4F208180917F04FD
:100DB0009091800401968F7399279093800480937B
:100DC0007F042093C600FF91EF919F918F913F91F7
:100DD0002F910F900BBE0F900FBE0F901F90189584
:100DE0001F920F920FB60F9211240BB60F922F93F2
:100DF0003F938F939F93EF93FF932091F50330914F
:100E0000F6038091F7039091F8032817390731F41E
:100E10008091C9008F7D8093C90014C0E091F703D1
:100E2000F091F803EB54FC4F20818091F7039091EF
:100E3000F80301968F7399279093F8038093F70333
:100E40002093CE00FF91EF919F918F913F912F9131
:100E50000F900BBE0F900FBE0F901F9018951F9212
:100E60000F920FB60F9211240BB60F922F933F9350
:100E70008F939F93EF93FF9320916D0330916E03B7
:100E800080916F03909170032817390731F4809196
:100E9000D1008F7D8093D10014C0E0916F03F09159
:100EA0007003E35DFC4F208180916F03909170038C
:100EB00001968F7399279093700380936F0320930B
:100EC000D600FF91EF919F918F913F912F910F90BD
:100ED0000BBE0F900FBE0F901F9018951F920F9290
:100EE0000FB60F9211240BB60F922F933F938F934F
:100EF0009F93EF93FF932091E5023091E60280915A
:100F0000E7029091E8022817390731F48091310106
:100F10008F7D8093310114C0E091E702F091E802E7
:100F2000EB55FD4F20818091E7029091E8020196F8
:100F30008F7399279093E8028093E70220933601FC
:100F4000FF91EF919F918F913F912F910F900BBE49
:100F50000F900FBE0F901F901895CF92DF92EF92D7
:100F6000FF920F931F93CF93DF93EC016A017B01F4
:100F7000411581EE58076105710511F1EC89FD8974
:100F800081E090E008A002C0880F991F0A94E2F760
:100F9000808360E079E08DE390E0A70196010E94F4
:100FA0000C0989019A01015011092109310936956D
:100FB0002795179507959801011580E11807A8F066
:100FC000EC89FD89108260E874E88EE190E0A70169
:100FD00096010E940C09DA01C9010197A109B10922
:100FE000B695A795979587959C01E889F9893083EF
:100FF000EA89FB89208319A2EE89FF89408181E07B
:1010000090E09C010C8C02C0220F331F0A94E2F77F
:10101000242B2083EE89FF8940819C010D8C02C026
:10102000220F331F0A94E2F7242B2083EE89FF89D5
:1010300040819C010E8C02C0220F331F0A94E2F7FC
:10104000242B2083EE89FF8920810F8C02C0880F1A
:10105000991F0A94E2F7809582238083DF91CF91D4
:101060001F910F91FF90EF90DF90CF900895CF9256
:10107000DF92EF92FF92E3E8F2E01382128288EEB1
:10108000C82E83E0D82EE12CF12CC482D582E682D2
:10109000F78265E072E07183608381E894E0958770
:1010A00084878DE394E09787868785EC90E0918B29
:1010B000808B84EC90E0938B828B80EC90E0958B1E
:1010C000848B81EC90E0978B868B82EC90E0918F03
:1010D000808F86EC90E0938F828F44E0448F33E0E2
:1010E000358F27E0268F95E0978F81E080A3E1E69A
:1010F000F2E013821282C482D582E682F782718383
:101100006083A9EFB3E0B587A487A5EBB3E0B78709
:10111000A687ADECB0E0B18BA08BACECB0E0B38BAC
:10112000A28BA8ECB0E0B58BA48BA9ECB0E0B78B98
:10113000A68BAAECB0E0B18FA08FAEECB0E0B38F7D
:10114000A28F448F358F268F978F80A3EFE3F2E035
:1011500013821282C482D582E682F7827183608311
:10116000A1E7B3E0B587A487ADE2B3E0B787A68770
:10117000A5EDB0E0B18BA08BA4EDB0E0B38BA28B5A
:10118000A0EDB0E0B58BA48BA1EDB0E0B78BA68B42
:10119000A2EDB0E0B18FA08FA6EDB0E0B38FA28F2B
:1011A000448F358F268F978F80A3EDE1F2E0138275
:1011B0001282C482D582E682F7827183608369EEEF
:1011C00072E07587648765EA72E07787668765E312
:1011D00071E0718B608B64E371E0738B628B60E311
:1011E00071E0758B648B61E371E0778B668B62E3F2
:1011F00071E0718F608F66E371E0738F628F448F4F
:10120000358F268F978F80A3FF90EF90DF90CF9040
:101210000895F8940C943609A1E21A2EAA1BBB1B60
:10122000FD010DC0AA1FBB1FEE1FFF1FA217B307B2
:10123000E407F50720F0A21BB30BE40BF50B661FC8
:10124000771F881F991F1A9469F76095709580958C
:1012500090959B01AC01BD01CF010895EE0FFF1FDA
:10126000881F8BBF0790F691E02D1994F894FFCF5B
:101270000C00000000640514040D0539051D055916
:02128000050067
:00000001FF
